:100000000C9462000C948A000C948A000C948A0070
:100010000C948A000C948A000C948A000C948A0038
:100020000C948A000C948A000C948A000C948A0028
:100030000C948A000C948A000C948A000C948A0018
:100040000C94A9030C948A000C94C5040C948A00A7
:100050000C948A000C948A000C948A000C948A00F8
:100060000C948A000C948A000000000024002700F1
:100070002A0000000000250028002B0000000000DE
:1000800023002600290004040404040404040202DA
:100090000202020203030303030301020408102007
:1000A0004080010204081020010204081020000012
:1000B0000007000201000003040600000000000029
:1000C00000004A0611241FBECFEFD8E0DEBFCDBF2F
:1000D00011E0A0E0B1E0EEE1FEE002C005900D927B
:1000E000AC30B107D9F711E0ACE0B1E001C01D922E
:1000F000AE3BB107E1F710E0C4ECD0E004C02297BA
:10010000FE010E940907C23CD107C9F70E941403EF
:100110000C940D070C9400008DE061E00E945C03DC
:1001200064E670E080E090E00E942A048DE060E0E8
:100130000E945C0368EC70E080E090E00E942A047A
:100140008DE061E00E945C0364E670E080E090E096
:100150000E942A048DE060E00E945C0368EC70E07D
:1001600080E090E00E942A048DE061E00E945C0340
:1001700064E670E080E090E00E942A048DE060E098
:100180000E945C0368EC70E080E090E00E942A042A
:100190008DE061E00E945C036CE271E080E090E041
:1001A0000E942A048DE060E00E945C0368EC70E02D
:1001B00080E090E00E942A048DE061E00E945C03F0
:1001C0006CE271E080E090E00E942A048DE060E043
:1001D0000E945C0368EC70E080E090E00E942A04DA
:1001E0008DE061E00E945C036CE271E080E090E0F1
:1001F0000E942A048DE060E00E945C0368EC70E0DD
:1002000080E090E00E942A048DE061E00E945C039F
:1002100064E670E080E090E00E942A048DE060E0F7
:100220000E945C0368EC70E080E090E00E942A0489
:100230008DE061E00E945C0364E670E080E090E0A5
:100240000E942A048DE060E00E945C0368EC70E08C
:1002500080E090E00E942A048DE061E00E945C034F
:1002600064E670E080E090E00E942A048DE060E0A7
:100270000E945C0368EE73E080E090E00E942A0434
:100280004BCFEF92FF920F931F93809117019091A4
:100290001801A0911901B0911A01E0901301F0909A
:1002A00014010091150110911601E80EF91E0A1FA4
:1002B0001B1FE816F9060A071B0738F40E94FF0304
:1002C00061507A4C8A499B43C8F7E0921701F0923B
:1002D00018010093190110931A010E94FF039B015A
:1002E000AC01E616F70608071907D8F48091130148
:1002F00090911401A0911501B0911601E80EF91E1C
:100300000A1F1B1FE216F3060407150740F420938B
:100310001701309318014093190150931A0181E09D
:1003200008C00E94FF036E157F0580079107C8F380
:1003300080E01F910F91FF90EF900895DF93CF938E
:1003400000D0CDB7DEB7282F80E88983442311F091
:1003500080EC8983220F220F220FCB01880F892F77
:10036000881F990B282B8981822B8983862F8F7771
:100370008A838BEA91E0BE016F5F7F4F42E050E0DD
:100380000E94A6040F900F90CF91DF910895CF9215
:10039000DF92EF92FF920F931F93DF93CF93CDB72E
:1003A000DEB72C970FB6F894DEBF0FBECDBF0E940C
:1003B0004101E82EFF246E010894C11CD11C10C01D
:1003C0000F2D10E0F801E45FFE4F80810E941E03B4
:1003D000000F111F0C0D1D1DF80191838083F394F4
:1003E00080911201F81660F300E06E010894C11CC0
:1003F000D11C10C0E02FF0E0DF01AA0FBB1FAC0D35
:10040000BD1D6D917C91E45FFE4F80814E2D0E9459
:100410009E010F5F80911201081760F380911B010C
:1004200090911C01019690931C0180931B018050B8
:10043000924090F010921C0110921B0190E080916C
:100440001D01882309F491E090931D0160E0911152
:1004500061E08DE00E945C032C960FB6F894DEBF3D
:100460000FBECDBFCF91DF911F910F91FF90EF9005
:10047000DF90CF9008951F93182FF894812F0E943A
:100480001E03BC0176956795769567958BEA91E09A
:100490000E943706F3CFEF92FF921F93DF93CF9323
:1004A00000D000D000D0CDB7DEB78BEA91E040E8B5
:1004B00055E260E070E00E9402058DE061E00E947C
:1004C0003C0310E07E010894E11CF11C8BEA91E0F2
:1004D0000E94FB05882349F08BEA91E00E940F06F9
:1004E000F701E10FF11D80831F5F0E94F10320E0FF
:1004F000607C717080709070611571058105910547
:1005000009F421E08DE0622F0E945C031630F0F2C6
:100510008DE060E00E945C031981E12EFF2440E041
:1005200020E030E0C701022E02C0959587950A941D
:10053000E2F780FF06C0E42FF0E0E45FFE4F208387
:100540004F5F2F5F3F4F2630310561F74093120117
:10055000442311F40E948C009B8180E02C8130E0C8
:10056000822B932BAA2797FDA095BA2F8093130176
:1005700090931401A0931501B093160181549B44EC
:10058000AC44B04010F00E948C007D8160E02E8170
:1005900030E0622B732B882777FD8095982F24E617
:1005A00030E040E050E00E948406AB01BC018BEAE1
:1005B00091E00E94020564EF71E080E090E00E940B
:1005C0002A041095812F881F8827881F0E941B03EB
:1005D000E6FE14C080911201813011F00E948C005F
:1005E0008DE061E00E945C0364E670E080E090E0F2
:1005F0000E942A0480910C010E943B020E94FF038A
:1006000060931701709318018093190190931A0158
:1006100026960FB6F894DEBF0FBECDBFCF91DF9107
:100620001F91FF90EF9008950E9454040E944B0286
:100630000E94C701FDCF8093000108958F709091B3
:1006400000019295990F990F907C982B90937C00C4
:1006500080917A00806480937A0080917A0086FD90
:10066000FCCF2091780040917900942F80E030E019
:10067000282B392BC9010895282F30E0C90186564F
:100680009F4FFC0194912A573F4FF9018491882391
:1006900091F0E82FF0E0EE0FFF1FE859FF4FA59112
:1006A000B491662329F48C91909589238C930895B5
:1006B0008C91892B8C930895482F50E0CA01825564
:1006C0009F4FFC012491CA0186569F4FFC019491D3
:1006D0004A575F4FFA0134913323D1F1222331F18C
:1006E000233021F4809180008F7705C0243031F4CD
:1006F000809180008F7D8093800018C0213019F494
:1007000084B58F7704C0223021F484B58F7D84BDF9
:100710000DC0263021F48091B0008F7705C02730BE
:1007200029F48091B0008F7D8093B000E32FF0E03A
:10073000EE0FFF1FEE58FF4FA591B491662329F4E9
:100740008C91909589238C9308958C91892B8C930F
:1007500008951F920F920FB60F9211242F933F937B
:100760008F939F93AF93BF93809122019091230128
:10077000A0912401B0912501309126010196A11D7F
:10078000B11D232F2D5F2D3720F02D570196A11D70
:10079000B11D209326018093220190932301A09301
:1007A0002401B093250180911E0190911F01A09119
:1007B0002001B09121010196A11DB11D80931E0160
:1007C00090931F01A0932001B0932101BF91AF919D
:1007D0009F918F913F912F910F900FBE0F901F907F
:1007E00018958FB7F8942091220130912301409100
:1007F0002401509125018FBFB901CA0108956FB737
:10080000F89486B590E0A0E0B0E0A89B08C00097FF
:10081000A105B10521F480E091E0A0E0B0E02091D5
:100820001E0130911F0140912001509121016FBFA5
:10083000542F432F322F2227280F391F4A1F5B1FA7
:1008400082E0220F331F441F551F8A95D1F7B9014B
:10085000CA010895EF92FF920F931F937B018C01C1
:100860008FB7F894409122015091230160912401A7
:10087000709125018FBF2FB7F8948091220190913C
:100880002301A0912401B09125012FBF841B950B5A
:10089000A60BB70BE816F9060A071B0760F71F91AE
:1008A0000F91FF90EF900895789484B5826084BD95
:1008B00084B5816084BD85B5826085BD85B5816064
:1008C00085BDEEE6F0E0808181608083E1E8F0E0C4
:1008D000808182608083808181608083E0E8F0E0B5
:1008E000808181608083E1EBF0E08081846080839F
:1008F000E0EBF0E0808181608083EAE7F0E08081D6
:100900008460808380818260808380818160808335
:100910008081806880831092C10008950F931F9397
:10092000CF93DF938C01EB0109C02196D801ED91A3
:10093000FC910190F081E02DC80109956881662342
:10094000A1F7DF91CF911F910F910895EF92FF9240
:100950000F931F93CF93DF938C017B01EA010CC0AF
:10096000D7016D917D01D801ED91FC910190F0814D
:10097000E02DC80109952197209791F7DF91CF913C
:100980001F910F91FF90EF9008951F920F920FB655
:100990000F9211242F933F934F935F936F937F9305
:1009A0008F939F93AF93BF93EF93FF934091C600B4
:1009B000E091A701F091A801CF01019660E870E0F5
:1009C0000E94A3069C018091A9019091AA01281779
:1009D000390739F0E95DFE4F40833093A801209339
:1009E000A701FF91EF91BF91AF919F918F917F915F
:1009F0006F915F914F913F912F910F900FBE0F908C
:100A00001F9018955F926F927F928F929F92AF92F4
:100A1000BF92CF92DF92EF92FF920F931F93CF93EB
:100A2000DF93EC013A014B01413482E458078FE037
:100A3000680780E078070CF07FC060E874E88EE11A
:100A400090E0A40193010E94D8062150304040401C
:100A50005040CA01B90122E030E040E050E00E947D
:100A6000D80659016A01A601950120953095409557
:100A7000509594E0220F331F441F551F9A95D1F7CC
:100A800060E074E284EF90E00E94D806CA01B901E8
:100A90002FEF30E040E050E00E948406A401930173
:100AA0000E94D806C90181509F4F181619061CF4E0
:100AB000522E5A9403C055245394521A60E079E0A0
:100AC0008DE390E0A40193010E94D80621503040AC
:100AD00040405040CA01B90122E030E040E050E01F
:100AE0000E94D806209530954095509583E0220FBE
:100AF000331F441F551F8A95D1F760E074E284EFDD
:100B000090E00E94D806CA01B9012FEF30E040E022
:100B100050E00E948406A40193010E94D806C901F6
:100B200081509F4F181619061CF4822F815002C065
:100B300081E0821B851500F5E885F98581E090E06C
:100B40000A8802C0880F991F0A94E2F7808360E048
:100B500079E08DE390E0A40193010E94D806215032
:100B6000304040405040CA01B90122E030E040E04E
:100B700050E00E94D80604C0E885F98510829501EE
:100B8000EC81FD813083EE81FF812083EA85FB8546
:100B9000208141E050E0CA010E8402C0880F991FF5
:100BA0000A94E2F7282B2083EA85FB852081CA017D
:100BB0000F8402C0880F991F0A94E2F7282B208324
:100BC000EA85FB858081088802C0440F551F0A947E
:100BD000E2F7842B8083DF91CF911F910F91FF90DB
:100BE000EF90DF90CF90BF90AF909F908F907F90CD
:100BF0006F905F900895DC011296ED91FC91139730
:100C0000E058FF4F8191919180589F4F2081318111
:100C1000821B930B60E870E00E94A3060895CF93B7
:100C2000DF93DC011296ED91FC911397EF01CE5703
:100C3000DF4F48815981E058FF4F80819181E05812
:100C4000F0408417950719F42FEF3FEF0CC0E40F25
:100C5000F51F2081CA01019660E870E00E94A3069A
:100C60009983888330E0C901DF91CF910895FC0119
:100C7000A085B18521898C9190E0022E02C09595C6
:100C800087950A94E2F780FFF6CF0484F585E02D7E
:100C90006083089585E091E09093AC018093AB016F
:100CA00087E291E09093AE018093AD0185EC90E0F6
:100CB0009093B0018093AF0184EC90E09093B201E7
:100CC0008093B10180EC90E09093B4018093B301E4
:100CD00081EC90E09093B6018093B50186EC90E0B2
:100CE0009093B8018093B70184E08093B90183E0C9
:100CF0008093BA0187E08093BB0185E08093BC01BB
:100D000081E08093BD010895629FD001739FF0013F
:100D1000829FE00DF11D649FE00DF11D929FF00D8B
:100D2000839FF00D749FF00D659FF00D9927729FC2
:100D3000B00DE11DF91F639FB00DE11DF91FBD014D
:100D4000CF011124089597FB092E07260AD077FDBD
:100D500004D049D006D000201AF4709561957F4FD9
:100D60000895F6F7909581959F4F0895A1E21A2E68
:100D7000AA1BBB1BFD010DC0AA1FBB1FEE1FFF1F3F
:100D8000A217B307E407F50720F0A21BB30BE40B8F
:100D9000F50B661F771F881F991F1A9469F76095D6
:100DA0007095809590959B01AC01BD01CF01089590
:100DB00097FB092E05260ED057FD04D0D7DF0AD0A9
:100DC000001C38F450954095309521953F4F4F4F7A
:100DD0005F4F0895F6F790958095709561957F4FD8
:100DE0008F4F9F4F0895AA1BBB1B51E107C0AA1F3D
:100DF000BB1FA617B70710F0A61BB70B881F991FBC
:100E00005A95A9F780959095BC01CD010895EE0FF4
:0E0E1000FF1F0590F491E02D0994F894FFCF98
:0C0E1E00010000000037068E04A604004E
:00000001FF
